{
  "contractName": "Voter",
  "abi": [
    {
      "inputs": [
        {
          "internalType": "uint256",
          "name": "",
          "type": "uint256"
        }
      ],
      "name": "options",
      "outputs": [
        {
          "internalType": "string",
          "name": "",
          "type": "string"
        }
      ],
      "stateMutability": "view",
      "type": "function",
      "constant": true
    },
    {
      "inputs": [
        {
          "internalType": "uint256",
          "name": "",
          "type": "uint256"
        }
      ],
      "name": "votes",
      "outputs": [
        {
          "internalType": "uint256",
          "name": "",
          "type": "uint256"
        }
      ],
      "stateMutability": "view",
      "type": "function",
      "constant": true
    },
    {
      "inputs": [
        {
          "internalType": "string",
          "name": "option",
          "type": "string"
        }
      ],
      "name": "addOption",
      "outputs": [],
      "stateMutability": "nonpayable",
      "type": "function"
    },
    {
      "inputs": [],
      "name": "startVoting",
      "outputs": [],
      "stateMutability": "nonpayable",
      "type": "function"
    },
    {
      "inputs": [
        {
          "internalType": "uint256",
          "name": "option",
          "type": "uint256"
        }
      ],
      "name": "vote",
      "outputs": [],
      "stateMutability": "nonpayable",
      "type": "function"
    },
    {
      "inputs": [
        {
          "internalType": "string",
          "name": "optionName",
          "type": "string"
        }
      ],
      "name": "vote",
      "outputs": [],
      "stateMutability": "nonpayable",
      "type": "function"
    },
    {
      "inputs": [],
      "name": "getVotes",
      "outputs": [
        {
          "internalType": "uint256[]",
          "name": "",
          "type": "uint256[]"
        }
      ],
      "stateMutability": "view",
      "type": "function",
      "constant": true
    }
  ],
  "bytecode": "0x608060405234801561001057600080fd5b50610f66806100206000396000f3fe608060405234801561001057600080fd5b506004361061007d5760003560e01c8063409e22051161005b578063409e2205146100c65780635df81330146100f6578063edc550dc14610126578063fc36e15b146101425761007d565b80630121b93f146100825780630dc960151461009e5780631ec6b60a146100bc575b600080fd5b61009c60048036038101906100979190610724565b61015e565b005b6100a6610264565b6040516100b3919061080f565b60405180910390f35b6100c46102bc565b005b6100e060048036038101906100db9190610724565b610401565b6040516100ed91906108c1565b60405180910390f35b610110600480360381019061010b9190610724565b6104ad565b60405161011d91906108f2565b60405180910390f35b610140600480360381019061013b9190610a42565b6104d1565b005b61015c60048036038101906101579190610a42565b610523565b005b60008110158015610173575060018054905081105b61017c57600080fd5b600260003373ffffffffffffffffffffffffffffffffffffffff1673ffffffffffffffffffffffffffffffffffffffff16815260200190815260200160002060009054906101000a900460ff16156101d357600080fd5b6001600082815481106101e9576101e8610a8b565b5b9060005260206000200160008282546102029190610ae9565b925050819055506001600260003373ffffffffffffffffffffffffffffffffffffffff1673ffffffffffffffffffffffffffffffffffffffff16815260200190815260200160002060006101000a81548160ff02191690831515021790555050565b606060008054806020026020016040519081016040528092919081815260200182805480156102b257602002820191906000526020600020905b81548152602001906001019080831161029e575b5050505050905090565b600460009054906101000a900460ff16156102d657600080fd5b60018054905067ffffffffffffffff8111156102f5576102f4610917565b5b6040519080825280602002602001820160405280156103235781602001602082028036833780820191505090505b5060009080519060200190610339929190610670565b5060005b6001805490508110156103e357600060405180604001604052808381526020016001151581525090508060036001848154811061037d5761037c610a8b565b5b906000526020600020016040516103949190610c20565b90815260200160405180910390206000820151816000015560208201518160010160006101000a81548160ff0219169083151502179055509050505080806103db90610c37565b91505061033d565b506001600460006101000a81548160ff021916908315150217905550565b6001818154811061041157600080fd5b90600052602060002001600091509050805461042c90610b4c565b80601f016020809104026020016040519081016040528092919081815260200182805461045890610b4c565b80156104a55780601f1061047a576101008083540402835291602001916104a5565b820191906000526020600020905b81548152906001019060200180831161048857829003601f168201915b505050505081565b600081815481106104bd57600080fd5b906000526020600020016000915090505481565b600460009054906101000a900460ff16156104eb57600080fd5b60018190806001815401808255809150506001900390600052602060002001600090919091909150908161051f9190610e16565b5050565b600260003373ffffffffffffffffffffffffffffffffffffffff1673ffffffffffffffffffffffffffffffffffffffff16815260200190815260200160002060009054906101000a900460ff161561057a57600080fd5b600060038260405161058c9190610f19565b9081526020016040518091039020604051806040016040529081600082015481526020016001820160009054906101000a900460ff161515151581525050905080602001516105da57600080fd5b600160008260000151815481106105f4576105f3610a8b565b5b90600052602060002001600082825461060d9190610ae9565b925050819055506001600260003373ffffffffffffffffffffffffffffffffffffffff1673ffffffffffffffffffffffffffffffffffffffff16815260200190815260200160002060006101000a81548160ff0219169083151502179055505050565b8280548282559060005260206000209081019282156106ac579160200282015b828111156106ab578251825591602001919060010190610690565b5b5090506106b991906106bd565b5090565b5b808211156106d65760008160009055506001016106be565b5090565b6000604051905090565b600080fd5b600080fd5b6000819050919050565b610701816106ee565b811461070c57600080fd5b50565b60008135905061071e816106f8565b92915050565b60006020828403121561073a576107396106e4565b5b60006107488482850161070f565b91505092915050565b600081519050919050565b600082825260208201905092915050565b6000819050602082019050919050565b610786816106ee565b82525050565b6000610798838361077d565b60208301905092915050565b6000602082019050919050565b60006107bc82610751565b6107c6818561075c565b93506107d18361076d565b8060005b838110156108025781516107e9888261078c565b97506107f4836107a4565b9250506001810190506107d5565b5085935050505092915050565b6000602082019050818103600083015261082981846107b1565b905092915050565b600081519050919050565b600082825260208201905092915050565b60005b8381101561086b578082015181840152602081019050610850565b60008484015250505050565b6000601f19601f8301169050919050565b600061089382610831565b61089d818561083c565b93506108ad81856020860161084d565b6108b681610877565b840191505092915050565b600060208201905081810360008301526108db8184610888565b905092915050565b6108ec816106ee565b82525050565b600060208201905061090760008301846108e3565b92915050565b600080fd5b600080fd5b7f4e487b7100000000000000000000000000000000000000000000000000000000600052604160045260246000fd5b61094f82610877565b810181811067ffffffffffffffff8211171561096e5761096d610917565b5b80604052505050565b60006109816106da565b905061098d8282610946565b919050565b600067ffffffffffffffff8211156109ad576109ac610917565b5b6109b682610877565b9050602081019050919050565b82818337600083830152505050565b60006109e56109e084610992565b610977565b905082815260208101848484011115610a0157610a00610912565b5b610a0c8482856109c3565b509392505050565b600082601f830112610a2957610a2861090d565b5b8135610a398482602086016109d2565b91505092915050565b600060208284031215610a5857610a576106e4565b5b600082013567ffffffffffffffff811115610a7657610a756106e9565b5b610a8284828501610a14565b91505092915050565b7f4e487b7100000000000000000000000000000000000000000000000000000000600052603260045260246000fd5b7f4e487b7100000000000000000000000000000000000000000000000000000000600052601160045260246000fd5b6000610af4826106ee565b9150610aff836106ee565b9250828201905080821115610b1757610b16610aba565b5b92915050565b7f4e487b7100000000000000000000000000000000000000000000000000000000600052602260045260246000fd5b60006002820490506001821680610b6457607f821691505b602082108103610b7757610b76610b1d565b5b50919050565b600081905092915050565b60008190508160005260206000209050919050565b60008154610baa81610b4c565b610bb48186610b7d565b94506001821660008114610bcf5760018114610be457610c17565b60ff1983168652811515820286019350610c17565b610bed85610b88565b60005b83811015610c0f57815481890152600182019150602081019050610bf0565b838801955050505b50505092915050565b6000610c2c8284610b9d565b915081905092915050565b6000610c42826106ee565b91507fffffffffffffffffffffffffffffffffffffffffffffffffffffffffffffffff8203610c7457610c73610aba565b5b600182019050919050565b60006020601f8301049050919050565b600082821b905092915050565b600060088302610ccc7fffffffffffffffffffffffffffffffffffffffffffffffffffffffffffffffff82610c8f565b610cd68683610c8f565b95508019841693508086168417925050509392505050565b6000819050919050565b6000610d13610d0e610d09846106ee565b610cee565b6106ee565b9050919050565b6000819050919050565b610d2d83610cf8565b610d41610d3982610d1a565b848454610c9c565b825550505050565b600090565b610d56610d49565b610d61818484610d24565b505050565b5b81811015610d8557610d7a600082610d4e565b600181019050610d67565b5050565b601f821115610dca57610d9b81610b88565b610da484610c7f565b81016020851015610db3578190505b610dc7610dbf85610c7f565b830182610d66565b50505b505050565b600082821c905092915050565b6000610ded60001984600802610dcf565b1980831691505092915050565b6000610e068383610ddc565b9150826002028217905092915050565b610e1f82610831565b67ffffffffffffffff811115610e3857610e37610917565b5b610e428254610b4c565b610e4d828285610d89565b600060209050601f831160018114610e805760008415610e6e578287015190505b610e788582610dfa565b865550610ee0565b601f198416610e8e86610b88565b60005b82811015610eb657848901518255600182019150602085019450602081019050610e91565b86831015610ed35784890151610ecf601f891682610ddc565b8355505b6001600288020188555050505b505050505050565b6000610ef382610831565b610efd8185610b7d565b9350610f0d81856020860161084d565b80840191505092915050565b6000610f258284610ee8565b91508190509291505056fea2646970667358221220f22417123351bd000569f96d6696e172213121d4e3271e9458270da5d1b92cd864736f6c63430008100033",
  "immutableReferences": {},
  "source": "\r\npragma solidity >=0.5.0 <0.9.0;\r\ncontract Voter {\r\n\t\r\n\tstruct OptionPos {\r\n\t\tuint pos;\r\n\t\tbool exists;\r\n\t}\r\n\t\r\n\t// Fields\r\n\tuint[] public votes;\r\n\tstring[] public options;\r\n\tmapping(address=>bool) hasVoted;\r\n\tmapping(string=>OptionPos) posOfOption;\r\n\tbool votingStarted;\r\n\t\r\n\t\r\n\tfunction addOption(string memory option) public {\r\n\t\trequire(!votingStarted);\r\n\t\toptions.push(option);\r\n\t}\r\n\t\r\n\tfunction startVoting() public{\r\n\t\trequire(!votingStarted);\r\n\t\tvotes = new uint[](options.length);\r\n\t\t\r\n\t\tfor (uint cnt = 0; cnt < options.length; cnt++) {\r\n\t\t\tOptionPos memory option = OptionPos(cnt, true);\r\n\t\t\tposOfOption[options[cnt]] = option;\r\n\t\t}\r\n\t\tvotingStarted = true;\r\n\t}\r\n\t\r\n\tfunction vote(uint option) public {\r\n\t\trequire(option >= 0 && option < options.length);\r\n\t\trequire(!(hasVoted[msg.sender]));\r\n\t\tvotes[option] += 1;\r\n\t\thasVoted[msg.sender] = true;\r\n\t}\r\n\t\r\n\tfunction vote(string memory optionName) public {\r\n\t\trequire(!(hasVoted[msg.sender]));\r\n\t\t\r\n\t\tOptionPos memory optionPos = posOfOption[optionName];\r\n\t\trequire(optionPos.exists);\r\n\t\t\r\n\t\tvotes[optionPos.pos] += 1;\r\n\t\thasVoted[msg.sender] = true;\r\n\t}\r\n\t\r\n\tfunction getVotes() public view returns (uint[] memory) {\r\n\t\treturn votes;\r\n\t}\r\n}",
  "sourcePath": "E:\\Software\\Learnings\\BlockChain\\Ethereum\\EthereumProject\\Truffle_Ethereum\\contracts\\Voter.sol",
  "compiler": {
    "name": "solc",
    "version": "0.8.16+commit.07a7930e.Emscripten.clang"
  },
  "schemaVersion": "3.4.9",
  "updatedAt": "2022-09-15T10:55:28.613Z",
  "networkType": "ethereum",
  "devdoc": {
    "kind": "dev",
    "methods": {},
    "version": 1
  },
  "userdoc": {
    "kind": "user",
    "methods": {},
    "version": 1
  }
}