{
  "contractName": "CrowdFundingWithDeadLine",
  "abi": [
    {
      "inputs": [
        {
          "internalType": "string",
          "name": "contractName",
          "type": "string"
        },
        {
          "internalType": "uint256",
          "name": "targetAmountEth",
          "type": "uint256"
        },
        {
          "internalType": "uint256",
          "name": "durationInMin",
          "type": "uint256"
        },
        {
          "internalType": "address payable",
          "name": "beneficiaryAddress",
          "type": "address"
        }
      ],
      "stateMutability": "nonpayable",
      "type": "constructor"
    },
    {
      "anonymous": false,
      "inputs": [
        {
          "indexed": false,
          "internalType": "address",
          "name": "addr",
          "type": "address"
        },
        {
          "indexed": false,
          "internalType": "uint256",
          "name": "totalCollected",
          "type": "uint256"
        },
        {
          "indexed": false,
          "internalType": "bool",
          "name": "succeeded",
          "type": "bool"
        }
      ],
      "name": "finishCrowdFundingEvt",
      "type": "event"
    },
    {
      "inputs": [
        {
          "internalType": "address",
          "name": "",
          "type": "address"
        }
      ],
      "name": "amounts",
      "outputs": [
        {
          "internalType": "uint256",
          "name": "",
          "type": "uint256"
        }
      ],
      "stateMutability": "view",
      "type": "function"
    },
    {
      "inputs": [],
      "name": "beneficiary",
      "outputs": [
        {
          "internalType": "address payable",
          "name": "",
          "type": "address"
        }
      ],
      "stateMutability": "view",
      "type": "function"
    },
    {
      "inputs": [],
      "name": "collected",
      "outputs": [
        {
          "internalType": "bool",
          "name": "",
          "type": "bool"
        }
      ],
      "stateMutability": "view",
      "type": "function"
    },
    {
      "inputs": [],
      "name": "fundingDeadline",
      "outputs": [
        {
          "internalType": "uint256",
          "name": "",
          "type": "uint256"
        }
      ],
      "stateMutability": "view",
      "type": "function"
    },
    {
      "inputs": [],
      "name": "name",
      "outputs": [
        {
          "internalType": "string",
          "name": "",
          "type": "string"
        }
      ],
      "stateMutability": "view",
      "type": "function"
    },
    {
      "inputs": [],
      "name": "state",
      "outputs": [
        {
          "internalType": "enum CrowdFundingWithDeadLine.State",
          "name": "",
          "type": "uint8"
        }
      ],
      "stateMutability": "view",
      "type": "function"
    },
    {
      "inputs": [],
      "name": "targetAmount",
      "outputs": [
        {
          "internalType": "uint256",
          "name": "",
          "type": "uint256"
        }
      ],
      "stateMutability": "view",
      "type": "function"
    },
    {
      "inputs": [],
      "name": "totalCollected",
      "outputs": [
        {
          "internalType": "uint256",
          "name": "",
          "type": "uint256"
        }
      ],
      "stateMutability": "view",
      "type": "function"
    },
    {
      "inputs": [],
      "name": "contribute",
      "outputs": [],
      "stateMutability": "payable",
      "type": "function"
    },
    {
      "inputs": [],
      "name": "beforeDeadline",
      "outputs": [
        {
          "internalType": "bool",
          "name": "",
          "type": "bool"
        }
      ],
      "stateMutability": "view",
      "type": "function"
    },
    {
      "inputs": [],
      "name": "finishCrowdFunding",
      "outputs": [],
      "stateMutability": "nonpayable",
      "type": "function"
    },
    {
      "inputs": [],
      "name": "collect",
      "outputs": [],
      "stateMutability": "nonpayable",
      "type": "function"
    },
    {
      "inputs": [],
      "name": "withdraw",
      "outputs": [],
      "stateMutability": "nonpayable",
      "type": "function"
    }
  ],
  "bytecode": "0x60806040523480156200001157600080fd5b50604051620018463803806200184683398181016040528101906200003791906200041f565b8360009081620000489190620006f1565b5073__Utils_________________________________63d8916bb9846040518263ffffffff1660e01b8152600401620000829190620007e9565b602060405180830381865af4158015620000a0573d6000803e3d6000fd5b505050506040513d601f19601f82011682018060405250810190620000c6919062000806565b60018190555073__Utils_________________________________63529b380f836040518263ffffffff1660e01b8152600401620001059190620007e9565b602060405180830381865af415801562000123573d6000803e3d6000fd5b505050506040513d601f19601f8201168201806040525081019062000149919062000806565b62000159620001e460201b60201c565b62000165919062000867565b60028190555080600360006101000a81548173ffffffffffffffffffffffffffffffffffffffff021916908373ffffffffffffffffffffffffffffffffffffffff1602179055506000600360146101000a81548160ff02191690836003811115620001d557620001d4620008a2565b5b021790555050505050620008d1565b600042905090565b6000604051905090565b600080fd5b600080fd5b600080fd5b600080fd5b6000601f19601f8301169050919050565b7f4e487b7100000000000000000000000000000000000000000000000000000000600052604160045260246000fd5b62000255826200020a565b810181811067ffffffffffffffff821117156200027757620002766200021b565b5b80604052505050565b60006200028c620001ec565b90506200029a82826200024a565b919050565b600067ffffffffffffffff821115620002bd57620002bc6200021b565b5b620002c8826200020a565b9050602081019050919050565b60005b83811015620002f5578082015181840152602081019050620002d8565b60008484015250505050565b60006200031862000312846200029f565b62000280565b90508281526020810184848401111562000337576200033662000205565b5b62000344848285620002d5565b509392505050565b600082601f83011262000364576200036362000200565b5b81516200037684826020860162000301565b91505092915050565b6000819050919050565b62000394816200037f565b8114620003a057600080fd5b50565b600081519050620003b48162000389565b92915050565b600073ffffffffffffffffffffffffffffffffffffffff82169050919050565b6000620003e782620003ba565b9050919050565b620003f981620003da565b81146200040557600080fd5b50565b6000815190506200041981620003ee565b92915050565b600080600080608085870312156200043c576200043b620001f6565b5b600085015167ffffffffffffffff8111156200045d576200045c620001fb565b5b6200046b878288016200034c565b94505060206200047e87828801620003a3565b93505060406200049187828801620003a3565b9250506060620004a48782880162000408565b91505092959194509250565b600081519050919050565b7f4e487b7100000000000000000000000000000000000000000000000000000000600052602260045260246000fd5b600060028204905060018216806200050357607f821691505b602082108103620005195762000518620004bb565b5b50919050565b60008190508160005260206000209050919050565b60006020601f8301049050919050565b600082821b905092915050565b600060088302620005837fffffffffffffffffffffffffffffffffffffffffffffffffffffffffffffffff8262000544565b6200058f868362000544565b95508019841693508086168417925050509392505050565b6000819050919050565b6000620005d2620005cc620005c6846200037f565b620005a7565b6200037f565b9050919050565b6000819050919050565b620005ee83620005b1565b62000606620005fd82620005d9565b84845462000551565b825550505050565b600090565b6200061d6200060e565b6200062a818484620005e3565b505050565b5b8181101562000652576200064660008262000613565b60018101905062000630565b5050565b601f821115620006a1576200066b816200051f565b620006768462000534565b8101602085101562000686578190505b6200069e620006958562000534565b8301826200062f565b50505b505050565b600082821c905092915050565b6000620006c660001984600802620006a6565b1980831691505092915050565b6000620006e18383620006b3565b9150826002028217905092915050565b620006fc82620004b0565b67ffffffffffffffff8111156200071857620007176200021b565b5b620007248254620004ea565b6200073182828562000656565b600060209050601f83116001811462000769576000841562000754578287015190505b620007608582620006d3565b865550620007d0565b601f19841662000779866200051f565b60005b82811015620007a3578489015182556001820191506020850194506020810190506200077c565b86831015620007c35784890151620007bf601f891682620006b3565b8355505b6001600288020188555050505b505050505050565b620007e3816200037f565b82525050565b6000602082019050620008006000830184620007d8565b92915050565b6000602082840312156200081f576200081e620001f6565b5b60006200082f84828501620003a3565b91505092915050565b7f4e487b7100000000000000000000000000000000000000000000000000000000600052601160045260246000fd5b600062000874826200037f565b915062000881836200037f565b92508282019050808211156200089c576200089b62000838565b5b92915050565b7f4e487b7100000000000000000000000000000000000000000000000000000000600052602160045260246000fd5b610f6580620008e16000396000f3fe6080604052600436106100c25760003560e01c8063796b23bb1161007f578063c19d93fb11610059578063c19d93fb14610234578063d7bb99ba1461025f578063e29eb83614610269578063e522538114610294576100c2565b8063796b23bb146101b357806384bcefd4146101de578063953b8fb814610209576100c2565b806306fdde03146100c7578063083dca11146100f257806338af3eed146101095780633ccfd60b1461013457806355a3b2c11461014b57806368bc004114610188575b600080fd5b3480156100d357600080fd5b506100dc6102ab565b6040516100e99190610a66565b60405180910390f35b3480156100fe57600080fd5b50610107610339565b005b34801561011557600080fd5b5061011e6104b7565b60405161012b9190610ac9565b60405180910390f35b34801561014057600080fd5b506101496104dd565b005b34801561015757600080fd5b50610172600480360381019061016d9190610b27565b6106e1565b60405161017f9190610b6d565b60405180910390f35b34801561019457600080fd5b5061019d6106f9565b6040516101aa9190610ba3565b60405180910390f35b3480156101bf57600080fd5b506101c861070c565b6040516101d59190610b6d565b60405180910390f35b3480156101ea57600080fd5b506101f3610712565b6040516102009190610ba3565b60405180910390f35b34801561021557600080fd5b5061021e610725565b60405161022b9190610b6d565b60405180910390f35b34801561024057600080fd5b5061024961072b565b6040516102569190610c35565b60405180910390f35b61026761073e565b005b34801561027557600080fd5b5061027e610895565b60405161028b9190610b6d565b60405180910390f35b3480156102a057600080fd5b506102a961089b565b005b600080546102b890610c7f565b80601f01602080910402602001604051908101604052809291908181526020018280546102e490610c7f565b80156103315780601f1061030657610100808354040283529160200191610331565b820191906000526020600020905b81548152906001019060200180831161031457829003601f168201915b505050505081565b600080600381111561034e5761034d610bbe565b5b600360149054906101000a900460ff1660038111156103705761036f610bbe565b5b146103b0576040517f08c379a00000000000000000000000000000000000000000000000000000000081526004016103a790610cfc565b60405180910390fd5b6103b86106f9565b156103f8576040517f08c379a00000000000000000000000000000000000000000000000000000000081526004016103ef90610d8e565b60405180910390fd5b600560009054906101000a900460ff1661043c576001600360146101000a81548160ff0219169083600381111561043257610431610bbe565b5b0217905550610468565b6002600360146101000a81548160ff0219169083600381111561046257610461610bbe565b5b02179055505b7f436d168a12f4f19d1b35b2fbd3e7c716a6dc2c20482d6a959839c3c96e0cd64830600654600560009054906101000a900460ff166040516104ac93929190610dbd565b60405180910390a150565b600360009054906101000a900473ffffffffffffffffffffffffffffffffffffffff1681565b60018060038111156104f2576104f1610bbe565b5b600360149054906101000a900460ff16600381111561051457610513610bbe565b5b14610554576040517f08c379a000000000000000000000000000000000000000000000000000000000815260040161054b90610cfc565b60405180910390fd5b6000600460003373ffffffffffffffffffffffffffffffffffffffff1673ffffffffffffffffffffffffffffffffffffffff16815260200190815260200160002054116105d6576040517f08c379a00000000000000000000000000000000000000000000000000000000081526004016105cd90610e40565b60405180910390fd5b6000600460003373ffffffffffffffffffffffffffffffffffffffff1673ffffffffffffffffffffffffffffffffffffffff1681526020019081526020016000205490506000600460003373ffffffffffffffffffffffffffffffffffffffff1673ffffffffffffffffffffffffffffffffffffffff168152602001908152602001600020819055503373ffffffffffffffffffffffffffffffffffffffff166108fc829081150290604051600060405180830381858888f193505050506106dd5780600460003373ffffffffffffffffffffffffffffffffffffffff1673ffffffffffffffffffffffffffffffffffffffff168152602001908152602001600020819055505b5050565b60046020528060005260406000206000915090505481565b60006002546107066109ce565b10905090565b60025481565b600560009054906101000a900460ff1681565b60015481565b600360149054906101000a900460ff1681565b600080600381111561075357610752610bbe565b5b600360149054906101000a900460ff16600381111561077557610774610bbe565b5b146107b5576040517f08c379a00000000000000000000000000000000000000000000000000000000081526004016107ac90610cfc565b60405180910390fd5b6107bd6106f9565b6107fc576040517f08c379a00000000000000000000000000000000000000000000000000000000081526004016107f390610eac565b60405180910390fd5b34600460003373ffffffffffffffffffffffffffffffffffffffff1673ffffffffffffffffffffffffffffffffffffffff168152602001908152602001600020600082825461084b9190610efb565b9250508190555034600660008282546108649190610efb565b9250508190555060015460065410610892576001600560006101000a81548160ff0219169083151502179055505b50565b60065481565b60028060038111156108b0576108af610bbe565b5b600360149054906101000a900460ff1660038111156108d2576108d1610bbe565b5b14610912576040517f08c379a000000000000000000000000000000000000000000000000000000000815260040161090990610cfc565b60405180910390fd5b600360009054906101000a900473ffffffffffffffffffffffffffffffffffffffff1673ffffffffffffffffffffffffffffffffffffffff166108fc6006549081150290604051600060405180830381858888f193505050501561099f5760038060146101000a81548160ff0219169083600381111561099557610994610bbe565b5b02179055506109cb565b6001600360146101000a81548160ff021916908360038111156109c5576109c4610bbe565b5b02179055505b50565b600042905090565b600081519050919050565b600082825260208201905092915050565b60005b83811015610a105780820151818401526020810190506109f5565b60008484015250505050565b6000601f19601f8301169050919050565b6000610a38826109d6565b610a4281856109e1565b9350610a528185602086016109f2565b610a5b81610a1c565b840191505092915050565b60006020820190508181036000830152610a808184610a2d565b905092915050565b600073ffffffffffffffffffffffffffffffffffffffff82169050919050565b6000610ab382610a88565b9050919050565b610ac381610aa8565b82525050565b6000602082019050610ade6000830184610aba565b92915050565b600080fd5b6000610af482610a88565b9050919050565b610b0481610ae9565b8114610b0f57600080fd5b50565b600081359050610b2181610afb565b92915050565b600060208284031215610b3d57610b3c610ae4565b5b6000610b4b84828501610b12565b91505092915050565b6000819050919050565b610b6781610b54565b82525050565b6000602082019050610b826000830184610b5e565b92915050565b60008115159050919050565b610b9d81610b88565b82525050565b6000602082019050610bb86000830184610b94565b92915050565b7f4e487b7100000000000000000000000000000000000000000000000000000000600052602160045260246000fd5b60048110610bfe57610bfd610bbe565b5b50565b6000819050610c0f82610bed565b919050565b6000610c1f82610c01565b9050919050565b610c2f81610c14565b82525050565b6000602082019050610c4a6000830184610c26565b92915050565b7f4e487b7100000000000000000000000000000000000000000000000000000000600052602260045260246000fd5b60006002820490506001821680610c9757607f821691505b602082108103610caa57610ca9610c50565b5b50919050565b7f496e76616c696420537461746500000000000000000000000000000000000000600082015250565b6000610ce6600d836109e1565b9150610cf182610cb0565b602082019050919050565b60006020820190508181036000830152610d1581610cd9565b9050919050565b7f43616e6e6f742066696e6973682063616d706169676e206265666f726520646560008201527f61646c696e650000000000000000000000000000000000000000000000000000602082015250565b6000610d786026836109e1565b9150610d8382610d1c565b604082019050919050565b60006020820190508181036000830152610da781610d6b565b9050919050565b610db781610ae9565b82525050565b6000606082019050610dd26000830186610dae565b610ddf6020830185610b5e565b610dec6040830184610b94565b949350505050565b7f4e6f7468696e672077617320636f6e7472696275746564000000000000000000600082015250565b6000610e2a6017836109e1565b9150610e3582610df4565b602082019050919050565b60006020820190508181036000830152610e5981610e1d565b9050919050565b7f4e6f20636f6e747269627574696f6e7320616674657220646561646c696e6500600082015250565b6000610e96601f836109e1565b9150610ea182610e60565b602082019050919050565b60006020820190508181036000830152610ec581610e89565b9050919050565b7f4e487b7100000000000000000000000000000000000000000000000000000000600052601160045260246000fd5b6000610f0682610b54565b9150610f1183610b54565b9250828201905080821115610f2957610f28610ecc565b5b9291505056fea26469706673582212200e67b6a0d19db52c6f442d812fea6b87e59a72224eec874ca2c140a3fc605bce64736f6c63430008100033",
  "deployedBytecode": "0x6080604052600436106100c25760003560e01c8063796b23bb1161007f578063c19d93fb11610059578063c19d93fb14610234578063d7bb99ba1461025f578063e29eb83614610269578063e522538114610294576100c2565b8063796b23bb146101b357806384bcefd4146101de578063953b8fb814610209576100c2565b806306fdde03146100c7578063083dca11146100f257806338af3eed146101095780633ccfd60b1461013457806355a3b2c11461014b57806368bc004114610188575b600080fd5b3480156100d357600080fd5b506100dc6102ab565b6040516100e99190610a66565b60405180910390f35b3480156100fe57600080fd5b50610107610339565b005b34801561011557600080fd5b5061011e6104b7565b60405161012b9190610ac9565b60405180910390f35b34801561014057600080fd5b506101496104dd565b005b34801561015757600080fd5b50610172600480360381019061016d9190610b27565b6106e1565b60405161017f9190610b6d565b60405180910390f35b34801561019457600080fd5b5061019d6106f9565b6040516101aa9190610ba3565b60405180910390f35b3480156101bf57600080fd5b506101c861070c565b6040516101d59190610b6d565b60405180910390f35b3480156101ea57600080fd5b506101f3610712565b6040516102009190610ba3565b60405180910390f35b34801561021557600080fd5b5061021e610725565b60405161022b9190610b6d565b60405180910390f35b34801561024057600080fd5b5061024961072b565b6040516102569190610c35565b60405180910390f35b61026761073e565b005b34801561027557600080fd5b5061027e610895565b60405161028b9190610b6d565b60405180910390f35b3480156102a057600080fd5b506102a961089b565b005b600080546102b890610c7f565b80601f01602080910402602001604051908101604052809291908181526020018280546102e490610c7f565b80156103315780601f1061030657610100808354040283529160200191610331565b820191906000526020600020905b81548152906001019060200180831161031457829003601f168201915b505050505081565b600080600381111561034e5761034d610bbe565b5b600360149054906101000a900460ff1660038111156103705761036f610bbe565b5b146103b0576040517f08c379a00000000000000000000000000000000000000000000000000000000081526004016103a790610cfc565b60405180910390fd5b6103b86106f9565b156103f8576040517f08c379a00000000000000000000000000000000000000000000000000000000081526004016103ef90610d8e565b60405180910390fd5b600560009054906101000a900460ff1661043c576001600360146101000a81548160ff0219169083600381111561043257610431610bbe565b5b0217905550610468565b6002600360146101000a81548160ff0219169083600381111561046257610461610bbe565b5b02179055505b7f436d168a12f4f19d1b35b2fbd3e7c716a6dc2c20482d6a959839c3c96e0cd64830600654600560009054906101000a900460ff166040516104ac93929190610dbd565b60405180910390a150565b600360009054906101000a900473ffffffffffffffffffffffffffffffffffffffff1681565b60018060038111156104f2576104f1610bbe565b5b600360149054906101000a900460ff16600381111561051457610513610bbe565b5b14610554576040517f08c379a000000000000000000000000000000000000000000000000000000000815260040161054b90610cfc565b60405180910390fd5b6000600460003373ffffffffffffffffffffffffffffffffffffffff1673ffffffffffffffffffffffffffffffffffffffff16815260200190815260200160002054116105d6576040517f08c379a00000000000000000000000000000000000000000000000000000000081526004016105cd90610e40565b60405180910390fd5b6000600460003373ffffffffffffffffffffffffffffffffffffffff1673ffffffffffffffffffffffffffffffffffffffff1681526020019081526020016000205490506000600460003373ffffffffffffffffffffffffffffffffffffffff1673ffffffffffffffffffffffffffffffffffffffff168152602001908152602001600020819055503373ffffffffffffffffffffffffffffffffffffffff166108fc829081150290604051600060405180830381858888f193505050506106dd5780600460003373ffffffffffffffffffffffffffffffffffffffff1673ffffffffffffffffffffffffffffffffffffffff168152602001908152602001600020819055505b5050565b60046020528060005260406000206000915090505481565b60006002546107066109ce565b10905090565b60025481565b600560009054906101000a900460ff1681565b60015481565b600360149054906101000a900460ff1681565b600080600381111561075357610752610bbe565b5b600360149054906101000a900460ff16600381111561077557610774610bbe565b5b146107b5576040517f08c379a00000000000000000000000000000000000000000000000000000000081526004016107ac90610cfc565b60405180910390fd5b6107bd6106f9565b6107fc576040517f08c379a00000000000000000000000000000000000000000000000000000000081526004016107f390610eac565b60405180910390fd5b34600460003373ffffffffffffffffffffffffffffffffffffffff1673ffffffffffffffffffffffffffffffffffffffff168152602001908152602001600020600082825461084b9190610efb565b9250508190555034600660008282546108649190610efb565b9250508190555060015460065410610892576001600560006101000a81548160ff0219169083151502179055505b50565b60065481565b60028060038111156108b0576108af610bbe565b5b600360149054906101000a900460ff1660038111156108d2576108d1610bbe565b5b14610912576040517f08c379a000000000000000000000000000000000000000000000000000000000815260040161090990610cfc565b60405180910390fd5b600360009054906101000a900473ffffffffffffffffffffffffffffffffffffffff1673ffffffffffffffffffffffffffffffffffffffff166108fc6006549081150290604051600060405180830381858888f193505050501561099f5760038060146101000a81548160ff0219169083600381111561099557610994610bbe565b5b02179055506109cb565b6001600360146101000a81548160ff021916908360038111156109c5576109c4610bbe565b5b02179055505b50565b600042905090565b600081519050919050565b600082825260208201905092915050565b60005b83811015610a105780820151818401526020810190506109f5565b60008484015250505050565b6000601f19601f8301169050919050565b6000610a38826109d6565b610a4281856109e1565b9350610a528185602086016109f2565b610a5b81610a1c565b840191505092915050565b60006020820190508181036000830152610a808184610a2d565b905092915050565b600073ffffffffffffffffffffffffffffffffffffffff82169050919050565b6000610ab382610a88565b9050919050565b610ac381610aa8565b82525050565b6000602082019050610ade6000830184610aba565b92915050565b600080fd5b6000610af482610a88565b9050919050565b610b0481610ae9565b8114610b0f57600080fd5b50565b600081359050610b2181610afb565b92915050565b600060208284031215610b3d57610b3c610ae4565b5b6000610b4b84828501610b12565b91505092915050565b6000819050919050565b610b6781610b54565b82525050565b6000602082019050610b826000830184610b5e565b92915050565b60008115159050919050565b610b9d81610b88565b82525050565b6000602082019050610bb86000830184610b94565b92915050565b7f4e487b7100000000000000000000000000000000000000000000000000000000600052602160045260246000fd5b60048110610bfe57610bfd610bbe565b5b50565b6000819050610c0f82610bed565b919050565b6000610c1f82610c01565b9050919050565b610c2f81610c14565b82525050565b6000602082019050610c4a6000830184610c26565b92915050565b7f4e487b7100000000000000000000000000000000000000000000000000000000600052602260045260246000fd5b60006002820490506001821680610c9757607f821691505b602082108103610caa57610ca9610c50565b5b50919050565b7f496e76616c696420537461746500000000000000000000000000000000000000600082015250565b6000610ce6600d836109e1565b9150610cf182610cb0565b602082019050919050565b60006020820190508181036000830152610d1581610cd9565b9050919050565b7f43616e6e6f742066696e6973682063616d706169676e206265666f726520646560008201527f61646c696e650000000000000000000000000000000000000000000000000000602082015250565b6000610d786026836109e1565b9150610d8382610d1c565b604082019050919050565b60006020820190508181036000830152610da781610d6b565b9050919050565b610db781610ae9565b82525050565b6000606082019050610dd26000830186610dae565b610ddf6020830185610b5e565b610dec6040830184610b94565b949350505050565b7f4e6f7468696e672077617320636f6e7472696275746564000000000000000000600082015250565b6000610e2a6017836109e1565b9150610e3582610df4565b602082019050919050565b60006020820190508181036000830152610e5981610e1d565b9050919050565b7f4e6f20636f6e747269627574696f6e7320616674657220646561646c696e6500600082015250565b6000610e96601f836109e1565b9150610ea182610e60565b602082019050919050565b60006020820190508181036000830152610ec581610e89565b9050919050565b7f4e487b7100000000000000000000000000000000000000000000000000000000600052601160045260246000fd5b6000610f0682610b54565b9150610f1183610b54565b9250828201905080821115610f2957610f28610ecc565b5b9291505056fea26469706673582212200e67b6a0d19db52c6f442d812fea6b87e59a72224eec874ca2c140a3fc605bce64736f6c63430008100033",
  "immutableReferences": {},
  "source": "pragma solidity ^0.8.0;\r\n\r\nimport \"./Utils.sol\";\r\n\r\ncontract CrowdFundingWithDeadLine {\r\n\r\n\tusing Utils for *;\r\n\r\n\tenum State {Ongoing, Failed, Succeeded, PaidOut}\r\n\t\r\n\tevent finishCrowdFundingEvt (address addr, uint totalCollected, bool succeeded);\r\n\t\r\n\tstring public name;\r\n\tuint public targetAmount;\r\n\tuint public fundingDeadline;\r\n\taddress payable public beneficiary;\r\n\tState public state;\r\n\tmapping(address=>uint) public amounts;\r\n\tbool public collected;\r\n\tuint public totalCollected;\r\n\t\r\n\tmodifier inState(State expectedState){\r\n\t\trequire(state == expectedState, \"Invalid State\");\r\n\t\t_;\r\n\t}\r\n\t\r\n\tconstructor(string memory contractName, uint targetAmountEth, uint durationInMin, address payable beneficiaryAddress) public {\r\n\t\tname = contractName;\r\n\t\ttargetAmount = Utils.etherToWei(targetAmountEth);\r\n\t\tfundingDeadline = currentTime() + Utils.minutesToSeconds(durationInMin);\r\n\t\tbeneficiary = beneficiaryAddress;\r\n\t\tstate = State.Ongoing;\r\n\t}\r\n\t\r\n\tfunction currentTime() internal virtual view returns(uint) {\r\n\t\treturn block.timestamp;\r\n\t}\r\n\t\r\n\tfunction contribute() public payable inState(State.Ongoing) {\r\n\t\r\n\t\trequire(beforeDeadline(),\"No contributions after deadline\");\r\n\t\t\r\n\t\tamounts[msg.sender] += msg.value;\r\n\t\ttotalCollected += msg.value;\r\n\t\t\r\n\t\tif(totalCollected >= targetAmount) {\r\n\t\t\tcollected = true;\r\n\t\t}\r\n\t}\r\n\t\r\n\tfunction beforeDeadline() public view returns(bool) {\r\n\t\treturn currentTime() < fundingDeadline;\r\n\t}\r\n\t\r\n\tfunction finishCrowdFunding() public inState(State.Ongoing) {\r\n\t\trequire(!beforeDeadline(), \"Cannot finish campaign before deadline\");\r\n\t\t\r\n\t\tif(!collected) {\r\n\t\t\tstate = State.Failed;\r\n\t\t} else {\r\n\t\t\tstate = State.Succeeded;\r\n\t\t}\r\n\t\t\r\n\t\temit finishCrowdFundingEvt(address(this), totalCollected, collected);\r\n\t}\r\n\t\r\n\tfunction collect() public inState(State.Succeeded) {\r\n\t\tif(beneficiary.send(totalCollected)) {\r\n\t\t\tstate = State.PaidOut;\r\n\t\t} else {\r\n\t\t\tstate = State.Failed;\r\n\t\t}\r\n\t}\r\n\t\r\n\tfunction withdraw() public inState(State.Failed) {\r\n\t\trequire(amounts[msg.sender] > 0, \"Nothing was contributed\");\r\n\t\t\r\n\t\tuint contributedAmt = amounts[msg.sender];\r\n\t\tamounts[msg.sender] = 0;\r\n\t\t\r\n\t\tif(!payable(msg.sender).send(contributedAmt)) {\r\n\t\t\tamounts[msg.sender] = contributedAmt;\r\n\t\t}\r\n\t}\r\n}",
  "sourcePath": "E:\\Software\\Learnings\\BlockChain\\Ethereum\\EthereumProject\\CrowdFunding\\contracts\\CrowdFundingWithDeadline.sol",
  "compiler": {
    "name": "solc",
    "version": "0.8.16+commit.07a7930e.Emscripten.clang"
  },
  "schemaVersion": "3.4.9",
  "updatedAt": "2022-09-26T11:50:27.957Z",
  "networkType": "ethereum",
  "devdoc": {
    "kind": "dev",
    "methods": {},
    "version": 1
  },
  "userdoc": {
    "kind": "user",
    "methods": {},
    "version": 1
  }
}