{
  "contractName": "TestCrowdFundingWithDeadLine",
  "abi": [
    {
      "inputs": [
        {
          "internalType": "string",
          "name": "contractName",
          "type": "string"
        },
        {
          "internalType": "uint256",
          "name": "targetAmountEth",
          "type": "uint256"
        },
        {
          "internalType": "uint256",
          "name": "durationInMin",
          "type": "uint256"
        },
        {
          "internalType": "address payable",
          "name": "beneficiaryAddress",
          "type": "address"
        }
      ],
      "stateMutability": "nonpayable",
      "type": "constructor"
    },
    {
      "anonymous": false,
      "inputs": [
        {
          "indexed": false,
          "internalType": "address",
          "name": "addr",
          "type": "address"
        },
        {
          "indexed": false,
          "internalType": "uint256",
          "name": "totalCollected",
          "type": "uint256"
        },
        {
          "indexed": false,
          "internalType": "bool",
          "name": "succeeded",
          "type": "bool"
        }
      ],
      "name": "finishCrowdFundingEvt",
      "type": "event"
    },
    {
      "inputs": [
        {
          "internalType": "address",
          "name": "",
          "type": "address"
        }
      ],
      "name": "amounts",
      "outputs": [
        {
          "internalType": "uint256",
          "name": "",
          "type": "uint256"
        }
      ],
      "stateMutability": "view",
      "type": "function"
    },
    {
      "inputs": [],
      "name": "beforeDeadline",
      "outputs": [
        {
          "internalType": "bool",
          "name": "",
          "type": "bool"
        }
      ],
      "stateMutability": "view",
      "type": "function"
    },
    {
      "inputs": [],
      "name": "beneficiary",
      "outputs": [
        {
          "internalType": "address payable",
          "name": "",
          "type": "address"
        }
      ],
      "stateMutability": "view",
      "type": "function"
    },
    {
      "inputs": [],
      "name": "collect",
      "outputs": [],
      "stateMutability": "nonpayable",
      "type": "function"
    },
    {
      "inputs": [],
      "name": "collected",
      "outputs": [
        {
          "internalType": "bool",
          "name": "",
          "type": "bool"
        }
      ],
      "stateMutability": "view",
      "type": "function"
    },
    {
      "inputs": [],
      "name": "contribute",
      "outputs": [],
      "stateMutability": "payable",
      "type": "function"
    },
    {
      "inputs": [],
      "name": "finishCrowdFunding",
      "outputs": [],
      "stateMutability": "nonpayable",
      "type": "function"
    },
    {
      "inputs": [],
      "name": "fundingDeadline",
      "outputs": [
        {
          "internalType": "uint256",
          "name": "",
          "type": "uint256"
        }
      ],
      "stateMutability": "view",
      "type": "function"
    },
    {
      "inputs": [],
      "name": "name",
      "outputs": [
        {
          "internalType": "string",
          "name": "",
          "type": "string"
        }
      ],
      "stateMutability": "view",
      "type": "function"
    },
    {
      "inputs": [],
      "name": "state",
      "outputs": [
        {
          "internalType": "enum CrowdFundingWithDeadLine.State",
          "name": "",
          "type": "uint8"
        }
      ],
      "stateMutability": "view",
      "type": "function"
    },
    {
      "inputs": [],
      "name": "targetAmount",
      "outputs": [
        {
          "internalType": "uint256",
          "name": "",
          "type": "uint256"
        }
      ],
      "stateMutability": "view",
      "type": "function"
    },
    {
      "inputs": [],
      "name": "totalCollected",
      "outputs": [
        {
          "internalType": "uint256",
          "name": "",
          "type": "uint256"
        }
      ],
      "stateMutability": "view",
      "type": "function"
    },
    {
      "inputs": [],
      "name": "withdraw",
      "outputs": [],
      "stateMutability": "nonpayable",
      "type": "function"
    },
    {
      "inputs": [
        {
          "internalType": "uint256",
          "name": "newTime",
          "type": "uint256"
        }
      ],
      "name": "setCurrentTime",
      "outputs": [],
      "stateMutability": "nonpayable",
      "type": "function"
    }
  ],
  "bytecode": "0x60806040523480156200001157600080fd5b50604051620018f9380380620018f9833981810160405281019062000037919062000429565b8383838383600090816200004c9190620006fb565b5073__Utils_________________________________63d8916bb9846040518263ffffffff1660e01b8152600401620000869190620007f3565b602060405180830381865af4158015620000a4573d6000803e3d6000fd5b505050506040513d601f19601f82011682018060405250810190620000ca919062000810565b60018190555073__Utils_________________________________63529b380f836040518263ffffffff1660e01b8152600401620001099190620007f3565b602060405180830381865af415801562000127573d6000803e3d6000fd5b505050506040513d601f19601f820116820180604052508101906200014d919062000810565b6200015d620001ec60201b60201c565b62000169919062000871565b60028190555080600360006101000a81548173ffffffffffffffffffffffffffffffffffffffff021916908373ffffffffffffffffffffffffffffffffffffffff1602179055506000600360146101000a81548160ff02191690836003811115620001d957620001d8620008ac565b5b02179055505050505050505050620008db565b6000600754905090565b6000604051905090565b600080fd5b600080fd5b600080fd5b600080fd5b6000601f19601f8301169050919050565b7f4e487b7100000000000000000000000000000000000000000000000000000000600052604160045260246000fd5b6200025f8262000214565b810181811067ffffffffffffffff8211171562000281576200028062000225565b5b80604052505050565b600062000296620001f6565b9050620002a4828262000254565b919050565b600067ffffffffffffffff821115620002c757620002c662000225565b5b620002d28262000214565b9050602081019050919050565b60005b83811015620002ff578082015181840152602081019050620002e2565b60008484015250505050565b6000620003226200031c84620002a9565b6200028a565b9050828152602081018484840111156200034157620003406200020f565b5b6200034e848285620002df565b509392505050565b600082601f8301126200036e576200036d6200020a565b5b8151620003808482602086016200030b565b91505092915050565b6000819050919050565b6200039e8162000389565b8114620003aa57600080fd5b50565b600081519050620003be8162000393565b92915050565b600073ffffffffffffffffffffffffffffffffffffffff82169050919050565b6000620003f182620003c4565b9050919050565b6200040381620003e4565b81146200040f57600080fd5b50565b6000815190506200042381620003f8565b92915050565b6000806000806080858703121562000446576200044562000200565b5b600085015167ffffffffffffffff81111562000467576200046662000205565b5b620004758782880162000356565b94505060206200048887828801620003ad565b93505060406200049b87828801620003ad565b9250506060620004ae8782880162000412565b91505092959194509250565b600081519050919050565b7f4e487b7100000000000000000000000000000000000000000000000000000000600052602260045260246000fd5b600060028204905060018216806200050d57607f821691505b602082108103620005235762000522620004c5565b5b50919050565b60008190508160005260206000209050919050565b60006020601f8301049050919050565b600082821b905092915050565b6000600883026200058d7fffffffffffffffffffffffffffffffffffffffffffffffffffffffffffffffff826200054e565b6200059986836200054e565b95508019841693508086168417925050509392505050565b6000819050919050565b6000620005dc620005d6620005d08462000389565b620005b1565b62000389565b9050919050565b6000819050919050565b620005f883620005bb565b620006106200060782620005e3565b8484546200055b565b825550505050565b600090565b6200062762000618565b62000634818484620005ed565b505050565b5b818110156200065c57620006506000826200061d565b6001810190506200063a565b5050565b601f821115620006ab57620006758162000529565b62000680846200053e565b8101602085101562000690578190505b620006a86200069f856200053e565b83018262000639565b50505b505050565b600082821c905092915050565b6000620006d060001984600802620006b0565b1980831691505092915050565b6000620006eb8383620006bd565b9150826002028217905092915050565b6200070682620004ba565b67ffffffffffffffff81111562000722576200072162000225565b5b6200072e8254620004f4565b6200073b82828562000660565b600060209050601f8311600181146200077357600084156200075e578287015190505b6200076a8582620006dd565b865550620007da565b601f198416620007838662000529565b60005b82811015620007ad5784890151825560018201915060208501945060208101905062000786565b86831015620007cd5784890151620007c9601f891682620006bd565b8355505b6001600288020188555050505b505050505050565b620007ed8162000389565b82525050565b60006020820190506200080a6000830184620007e2565b92915050565b60006020828403121562000829576200082862000200565b5b60006200083984828501620003ad565b91505092915050565b7f4e487b7100000000000000000000000000000000000000000000000000000000600052601160045260246000fd5b60006200087e8262000389565b91506200088b8362000389565b9250828201905080821115620008a657620008a562000842565b5b92915050565b7f4e487b7100000000000000000000000000000000000000000000000000000000600052602160045260246000fd5b61100e80620008eb6000396000f3fe6080604052600436106100dd5760003560e01c8063796b23bb1161007f578063c19d93fb11610059578063c19d93fb14610278578063d7bb99ba146102a3578063e29eb836146102ad578063e5225381146102d8576100dd565b8063796b23bb146101f757806384bcefd414610222578063953b8fb81461024d576100dd565b806338af3eed116100bb57806338af3eed1461014d5780633ccfd60b1461017857806355a3b2c11461018f57806368bc0041146101cc576100dd565b806306fdde03146100e2578063083dca111461010d57806322f8e56614610124575b600080fd5b3480156100ee57600080fd5b506100f76102ef565b6040516101049190610ab6565b60405180910390f35b34801561011957600080fd5b5061012261037d565b005b34801561013057600080fd5b5061014b60048036038101906101469190610b13565b6104fb565b005b34801561015957600080fd5b50610162610505565b60405161016f9190610b81565b60405180910390f35b34801561018457600080fd5b5061018d61052b565b005b34801561019b57600080fd5b506101b660048036038101906101b19190610bda565b61072f565b6040516101c39190610c16565b60405180910390f35b3480156101d857600080fd5b506101e1610747565b6040516101ee9190610c4c565b60405180910390f35b34801561020357600080fd5b5061020c61075a565b6040516102199190610c16565b60405180910390f35b34801561022e57600080fd5b50610237610760565b6040516102449190610c4c565b60405180910390f35b34801561025957600080fd5b50610262610773565b60405161026f9190610c16565b60405180910390f35b34801561028457600080fd5b5061028d610779565b60405161029a9190610cde565b60405180910390f35b6102ab61078c565b005b3480156102b957600080fd5b506102c26108e3565b6040516102cf9190610c16565b60405180910390f35b3480156102e457600080fd5b506102ed6108e9565b005b600080546102fc90610d28565b80601f016020809104026020016040519081016040528092919081815260200182805461032890610d28565b80156103755780601f1061034a57610100808354040283529160200191610375565b820191906000526020600020905b81548152906001019060200180831161035857829003601f168201915b505050505081565b600080600381111561039257610391610c67565b5b600360149054906101000a900460ff1660038111156103b4576103b3610c67565b5b146103f4576040517f08c379a00000000000000000000000000000000000000000000000000000000081526004016103eb90610da5565b60405180910390fd5b6103fc610747565b1561043c576040517f08c379a000000000000000000000000000000000000000000000000000000000815260040161043390610e37565b60405180910390fd5b600560009054906101000a900460ff16610480576001600360146101000a81548160ff0219169083600381111561047657610475610c67565b5b02179055506104ac565b6002600360146101000a81548160ff021916908360038111156104a6576104a5610c67565b5b02179055505b7f436d168a12f4f19d1b35b2fbd3e7c716a6dc2c20482d6a959839c3c96e0cd64830600654600560009054906101000a900460ff166040516104f093929190610e66565b60405180910390a150565b8060078190555050565b600360009054906101000a900473ffffffffffffffffffffffffffffffffffffffff1681565b60018060038111156105405761053f610c67565b5b600360149054906101000a900460ff16600381111561056257610561610c67565b5b146105a2576040517f08c379a000000000000000000000000000000000000000000000000000000000815260040161059990610da5565b60405180910390fd5b6000600460003373ffffffffffffffffffffffffffffffffffffffff1673ffffffffffffffffffffffffffffffffffffffff1681526020019081526020016000205411610624576040517f08c379a000000000000000000000000000000000000000000000000000000000815260040161061b90610ee9565b60405180910390fd5b6000600460003373ffffffffffffffffffffffffffffffffffffffff1673ffffffffffffffffffffffffffffffffffffffff1681526020019081526020016000205490506000600460003373ffffffffffffffffffffffffffffffffffffffff1673ffffffffffffffffffffffffffffffffffffffff168152602001908152602001600020819055503373ffffffffffffffffffffffffffffffffffffffff166108fc829081150290604051600060405180830381858888f1935050505061072b5780600460003373ffffffffffffffffffffffffffffffffffffffff1673ffffffffffffffffffffffffffffffffffffffff168152602001908152602001600020819055505b5050565b60046020528060005260406000206000915090505481565b6000600254610754610a1c565b10905090565b60025481565b600560009054906101000a900460ff1681565b60015481565b600360149054906101000a900460ff1681565b60008060038111156107a1576107a0610c67565b5b600360149054906101000a900460ff1660038111156107c3576107c2610c67565b5b14610803576040517f08c379a00000000000000000000000000000000000000000000000000000000081526004016107fa90610da5565b60405180910390fd5b61080b610747565b61084a576040517f08c379a000000000000000000000000000000000000000000000000000000000815260040161084190610f55565b60405180910390fd5b34600460003373ffffffffffffffffffffffffffffffffffffffff1673ffffffffffffffffffffffffffffffffffffffff16815260200190815260200160002060008282546108999190610fa4565b9250508190555034600660008282546108b29190610fa4565b92505081905550600154600654106108e0576001600560006101000a81548160ff0219169083151502179055505b50565b60065481565b60028060038111156108fe576108fd610c67565b5b600360149054906101000a900460ff1660038111156109205761091f610c67565b5b14610960576040517f08c379a000000000000000000000000000000000000000000000000000000000815260040161095790610da5565b60405180910390fd5b600360009054906101000a900473ffffffffffffffffffffffffffffffffffffffff1673ffffffffffffffffffffffffffffffffffffffff166108fc6006549081150290604051600060405180830381858888f19350505050156109ed5760038060146101000a81548160ff021916908360038111156109e3576109e2610c67565b5b0217905550610a19565b6001600360146101000a81548160ff02191690836003811115610a1357610a12610c67565b5b02179055505b50565b6000600754905090565b600081519050919050565b600082825260208201905092915050565b60005b83811015610a60578082015181840152602081019050610a45565b60008484015250505050565b6000601f19601f8301169050919050565b6000610a8882610a26565b610a928185610a31565b9350610aa2818560208601610a42565b610aab81610a6c565b840191505092915050565b60006020820190508181036000830152610ad08184610a7d565b905092915050565b600080fd5b6000819050919050565b610af081610add565b8114610afb57600080fd5b50565b600081359050610b0d81610ae7565b92915050565b600060208284031215610b2957610b28610ad8565b5b6000610b3784828501610afe565b91505092915050565b600073ffffffffffffffffffffffffffffffffffffffff82169050919050565b6000610b6b82610b40565b9050919050565b610b7b81610b60565b82525050565b6000602082019050610b966000830184610b72565b92915050565b6000610ba782610b40565b9050919050565b610bb781610b9c565b8114610bc257600080fd5b50565b600081359050610bd481610bae565b92915050565b600060208284031215610bf057610bef610ad8565b5b6000610bfe84828501610bc5565b91505092915050565b610c1081610add565b82525050565b6000602082019050610c2b6000830184610c07565b92915050565b60008115159050919050565b610c4681610c31565b82525050565b6000602082019050610c616000830184610c3d565b92915050565b7f4e487b7100000000000000000000000000000000000000000000000000000000600052602160045260246000fd5b60048110610ca757610ca6610c67565b5b50565b6000819050610cb882610c96565b919050565b6000610cc882610caa565b9050919050565b610cd881610cbd565b82525050565b6000602082019050610cf36000830184610ccf565b92915050565b7f4e487b7100000000000000000000000000000000000000000000000000000000600052602260045260246000fd5b60006002820490506001821680610d4057607f821691505b602082108103610d5357610d52610cf9565b5b50919050565b7f496e76616c696420537461746500000000000000000000000000000000000000600082015250565b6000610d8f600d83610a31565b9150610d9a82610d59565b602082019050919050565b60006020820190508181036000830152610dbe81610d82565b9050919050565b7f43616e6e6f742066696e6973682063616d706169676e206265666f726520646560008201527f61646c696e650000000000000000000000000000000000000000000000000000602082015250565b6000610e21602683610a31565b9150610e2c82610dc5565b604082019050919050565b60006020820190508181036000830152610e5081610e14565b9050919050565b610e6081610b9c565b82525050565b6000606082019050610e7b6000830186610e57565b610e886020830185610c07565b610e956040830184610c3d565b949350505050565b7f4e6f7468696e672077617320636f6e7472696275746564000000000000000000600082015250565b6000610ed3601783610a31565b9150610ede82610e9d565b602082019050919050565b60006020820190508181036000830152610f0281610ec6565b9050919050565b7f4e6f20636f6e747269627574696f6e7320616674657220646561646c696e6500600082015250565b6000610f3f601f83610a31565b9150610f4a82610f09565b602082019050919050565b60006020820190508181036000830152610f6e81610f32565b9050919050565b7f4e487b7100000000000000000000000000000000000000000000000000000000600052601160045260246000fd5b6000610faf82610add565b9150610fba83610add565b9250828201905080821115610fd257610fd1610f75565b5b9291505056fea2646970667358221220ae9e3a18ab8155c150474c8bc1defd70127e6c3710574fa411a625cfb8b6d37664736f6c63430008100033",
  "deployedBytecode": "0x6080604052600436106100dd5760003560e01c8063796b23bb1161007f578063c19d93fb11610059578063c19d93fb14610278578063d7bb99ba146102a3578063e29eb836146102ad578063e5225381146102d8576100dd565b8063796b23bb146101f757806384bcefd414610222578063953b8fb81461024d576100dd565b806338af3eed116100bb57806338af3eed1461014d5780633ccfd60b1461017857806355a3b2c11461018f57806368bc0041146101cc576100dd565b806306fdde03146100e2578063083dca111461010d57806322f8e56614610124575b600080fd5b3480156100ee57600080fd5b506100f76102ef565b6040516101049190610ab6565b60405180910390f35b34801561011957600080fd5b5061012261037d565b005b34801561013057600080fd5b5061014b60048036038101906101469190610b13565b6104fb565b005b34801561015957600080fd5b50610162610505565b60405161016f9190610b81565b60405180910390f35b34801561018457600080fd5b5061018d61052b565b005b34801561019b57600080fd5b506101b660048036038101906101b19190610bda565b61072f565b6040516101c39190610c16565b60405180910390f35b3480156101d857600080fd5b506101e1610747565b6040516101ee9190610c4c565b60405180910390f35b34801561020357600080fd5b5061020c61075a565b6040516102199190610c16565b60405180910390f35b34801561022e57600080fd5b50610237610760565b6040516102449190610c4c565b60405180910390f35b34801561025957600080fd5b50610262610773565b60405161026f9190610c16565b60405180910390f35b34801561028457600080fd5b5061028d610779565b60405161029a9190610cde565b60405180910390f35b6102ab61078c565b005b3480156102b957600080fd5b506102c26108e3565b6040516102cf9190610c16565b60405180910390f35b3480156102e457600080fd5b506102ed6108e9565b005b600080546102fc90610d28565b80601f016020809104026020016040519081016040528092919081815260200182805461032890610d28565b80156103755780601f1061034a57610100808354040283529160200191610375565b820191906000526020600020905b81548152906001019060200180831161035857829003601f168201915b505050505081565b600080600381111561039257610391610c67565b5b600360149054906101000a900460ff1660038111156103b4576103b3610c67565b5b146103f4576040517f08c379a00000000000000000000000000000000000000000000000000000000081526004016103eb90610da5565b60405180910390fd5b6103fc610747565b1561043c576040517f08c379a000000000000000000000000000000000000000000000000000000000815260040161043390610e37565b60405180910390fd5b600560009054906101000a900460ff16610480576001600360146101000a81548160ff0219169083600381111561047657610475610c67565b5b02179055506104ac565b6002600360146101000a81548160ff021916908360038111156104a6576104a5610c67565b5b02179055505b7f436d168a12f4f19d1b35b2fbd3e7c716a6dc2c20482d6a959839c3c96e0cd64830600654600560009054906101000a900460ff166040516104f093929190610e66565b60405180910390a150565b8060078190555050565b600360009054906101000a900473ffffffffffffffffffffffffffffffffffffffff1681565b60018060038111156105405761053f610c67565b5b600360149054906101000a900460ff16600381111561056257610561610c67565b5b146105a2576040517f08c379a000000000000000000000000000000000000000000000000000000000815260040161059990610da5565b60405180910390fd5b6000600460003373ffffffffffffffffffffffffffffffffffffffff1673ffffffffffffffffffffffffffffffffffffffff1681526020019081526020016000205411610624576040517f08c379a000000000000000000000000000000000000000000000000000000000815260040161061b90610ee9565b60405180910390fd5b6000600460003373ffffffffffffffffffffffffffffffffffffffff1673ffffffffffffffffffffffffffffffffffffffff1681526020019081526020016000205490506000600460003373ffffffffffffffffffffffffffffffffffffffff1673ffffffffffffffffffffffffffffffffffffffff168152602001908152602001600020819055503373ffffffffffffffffffffffffffffffffffffffff166108fc829081150290604051600060405180830381858888f1935050505061072b5780600460003373ffffffffffffffffffffffffffffffffffffffff1673ffffffffffffffffffffffffffffffffffffffff168152602001908152602001600020819055505b5050565b60046020528060005260406000206000915090505481565b6000600254610754610a1c565b10905090565b60025481565b600560009054906101000a900460ff1681565b60015481565b600360149054906101000a900460ff1681565b60008060038111156107a1576107a0610c67565b5b600360149054906101000a900460ff1660038111156107c3576107c2610c67565b5b14610803576040517f08c379a00000000000000000000000000000000000000000000000000000000081526004016107fa90610da5565b60405180910390fd5b61080b610747565b61084a576040517f08c379a000000000000000000000000000000000000000000000000000000000815260040161084190610f55565b60405180910390fd5b34600460003373ffffffffffffffffffffffffffffffffffffffff1673ffffffffffffffffffffffffffffffffffffffff16815260200190815260200160002060008282546108999190610fa4565b9250508190555034600660008282546108b29190610fa4565b92505081905550600154600654106108e0576001600560006101000a81548160ff0219169083151502179055505b50565b60065481565b60028060038111156108fe576108fd610c67565b5b600360149054906101000a900460ff1660038111156109205761091f610c67565b5b14610960576040517f08c379a000000000000000000000000000000000000000000000000000000000815260040161095790610da5565b60405180910390fd5b600360009054906101000a900473ffffffffffffffffffffffffffffffffffffffff1673ffffffffffffffffffffffffffffffffffffffff166108fc6006549081150290604051600060405180830381858888f19350505050156109ed5760038060146101000a81548160ff021916908360038111156109e3576109e2610c67565b5b0217905550610a19565b6001600360146101000a81548160ff02191690836003811115610a1357610a12610c67565b5b02179055505b50565b6000600754905090565b600081519050919050565b600082825260208201905092915050565b60005b83811015610a60578082015181840152602081019050610a45565b60008484015250505050565b6000601f19601f8301169050919050565b6000610a8882610a26565b610a928185610a31565b9350610aa2818560208601610a42565b610aab81610a6c565b840191505092915050565b60006020820190508181036000830152610ad08184610a7d565b905092915050565b600080fd5b6000819050919050565b610af081610add565b8114610afb57600080fd5b50565b600081359050610b0d81610ae7565b92915050565b600060208284031215610b2957610b28610ad8565b5b6000610b3784828501610afe565b91505092915050565b600073ffffffffffffffffffffffffffffffffffffffff82169050919050565b6000610b6b82610b40565b9050919050565b610b7b81610b60565b82525050565b6000602082019050610b966000830184610b72565b92915050565b6000610ba782610b40565b9050919050565b610bb781610b9c565b8114610bc257600080fd5b50565b600081359050610bd481610bae565b92915050565b600060208284031215610bf057610bef610ad8565b5b6000610bfe84828501610bc5565b91505092915050565b610c1081610add565b82525050565b6000602082019050610c2b6000830184610c07565b92915050565b60008115159050919050565b610c4681610c31565b82525050565b6000602082019050610c616000830184610c3d565b92915050565b7f4e487b7100000000000000000000000000000000000000000000000000000000600052602160045260246000fd5b60048110610ca757610ca6610c67565b5b50565b6000819050610cb882610c96565b919050565b6000610cc882610caa565b9050919050565b610cd881610cbd565b82525050565b6000602082019050610cf36000830184610ccf565b92915050565b7f4e487b7100000000000000000000000000000000000000000000000000000000600052602260045260246000fd5b60006002820490506001821680610d4057607f821691505b602082108103610d5357610d52610cf9565b5b50919050565b7f496e76616c696420537461746500000000000000000000000000000000000000600082015250565b6000610d8f600d83610a31565b9150610d9a82610d59565b602082019050919050565b60006020820190508181036000830152610dbe81610d82565b9050919050565b7f43616e6e6f742066696e6973682063616d706169676e206265666f726520646560008201527f61646c696e650000000000000000000000000000000000000000000000000000602082015250565b6000610e21602683610a31565b9150610e2c82610dc5565b604082019050919050565b60006020820190508181036000830152610e5081610e14565b9050919050565b610e6081610b9c565b82525050565b6000606082019050610e7b6000830186610e57565b610e886020830185610c07565b610e956040830184610c3d565b949350505050565b7f4e6f7468696e672077617320636f6e7472696275746564000000000000000000600082015250565b6000610ed3601783610a31565b9150610ede82610e9d565b602082019050919050565b60006020820190508181036000830152610f0281610ec6565b9050919050565b7f4e6f20636f6e747269627574696f6e7320616674657220646561646c696e6500600082015250565b6000610f3f601f83610a31565b9150610f4a82610f09565b602082019050919050565b60006020820190508181036000830152610f6e81610f32565b9050919050565b7f4e487b7100000000000000000000000000000000000000000000000000000000600052601160045260246000fd5b6000610faf82610add565b9150610fba83610add565b9250828201905080821115610fd257610fd1610f75565b5b9291505056fea2646970667358221220ae9e3a18ab8155c150474c8bc1defd70127e6c3710574fa411a625cfb8b6d37664736f6c63430008100033",
  "immutableReferences": {},
  "source": "pragma solidity ^0.8.0;\r\n\r\nimport \"./CrowdFundingWithDeadLine.sol\";\r\n\r\ncontract TestCrowdFundingWithDeadLine is CrowdFundingWithDeadLine{\r\n\tuint time;\r\n\t\r\n\tconstructor(string memory contractName, uint targetAmountEth, uint durationInMin, address payable beneficiaryAddress) CrowdFundingWithDeadLine(contractName, targetAmountEth, durationInMin, beneficiaryAddress) public {\r\n\t}\r\n\t\r\n\tfunction currentTime() internal override view returns(uint){\r\n\t\treturn time;\r\n\t}\r\n\t\r\n\tfunction setCurrentTime(uint newTime) public{\r\n\t\ttime = newTime;\r\n\t}\r\n}",
  "sourcePath": "E:\\Software\\Learnings\\BlockChain\\Ethereum\\EthereumProject\\CrowdFunding\\contracts\\TestCrowdFundingWithDeadLine.sol",
  "compiler": {
    "name": "solc",
    "version": "0.8.16+commit.07a7930e.Emscripten.clang"
  },
  "schemaVersion": "3.4.9",
  "updatedAt": "2022-09-26T11:50:27.985Z",
  "networkType": "ethereum",
  "devdoc": {
    "kind": "dev",
    "methods": {},
    "version": 1
  },
  "userdoc": {
    "kind": "user",
    "methods": {},
    "version": 1
  }
}